:1000000045C000008AC000005EC000005CC0000067
:100010005AC0000099C0000056C0000054C0000043
:1000200052C0000050C000004EC000004CC0000094
:100030004AC0000048C0000046C0000044C00000A4
:1000400042C0000040C000003EC000003CC00000B4
:100050003AC0000038C0000036C0000034C00000C4
:1000600032C0000030C000002EC000002CC00000D4
:100070002AC0000028C0000026C0000024C00000E4
:1000800022C0000020C000001EC0000011241FBEBE
:10009000CFEFD0E1DEBFCDBF11E0A0E0B1E0E8EFEF
:1000A000F1E000E00BBF02C007900D92A231B10752
:1000B000D9F721E0A2E1B1E001C01D92A431B2075D
:1000C000E1F759D097C09CCF6AE070E06CD0AC01EA
:1000D00020E030E01EC0A5E6B0E08BE08C93FB0191
:1000E000FF27E050FF4F908198BB86E69EE0019786
:1000F000F1F7000097E09C93FA01FF27E050FF4FD3
:10010000908198BB86E69EE00197F1F700002F5F93
:100110003F4F2E313105FCF208951F920F920FB61A
:100120000F9211248F939F9380911201909113014C
:10013000019690931301809312019F918F910F90DC
:100140000FBE0F901F9018951F920F920FB60F922F
:1001500011248F939F938091120190911301019725
:1001600090931301809312019F918F910F900FBE76
:100170000F901F9018958FEF87BB8FE080936400DE
:1001800011BA89B7816189BFEAE6F0E080818360B6
:1001900080838AB783608ABF78948091120190919E
:1001A000130192DFFACF97FB072E16F4009406D0C6
:1001B00077FD08D00BD007FC05D03EF490958195D3
:1001C0009F4F0895709561957F4F0895AA1BBB1BA3
:1001D00051E107C0AA1FBB1FA617B70710F0A61B47
:1001E000B70B881F991F5A95A9F780959095BC0168
:0801F000CD010895F894FFCF42
:1001F8003F065B4F666D7C077F6F777C395E797150
:0202080008806C
:00000001FF
